{
  "contractName": "Calculator",
  "abi": [
    {
      "inputs": [
        {
          "internalType": "uint256",
          "name": "a",
          "type": "uint256"
        },
        {
          "internalType": "uint256",
          "name": "b",
          "type": "uint256"
        }
      ],
      "name": "add",
      "outputs": [],
      "stateMutability": "nonpayable",
      "type": "function"
    },
    {
      "inputs": [
        {
          "internalType": "uint256",
          "name": "a",
          "type": "uint256"
        },
        {
          "internalType": "uint256",
          "name": "b",
          "type": "uint256"
        }
      ],
      "name": "sub",
      "outputs": [],
      "stateMutability": "nonpayable",
      "type": "function"
    },
    {
      "inputs": [
        {
          "internalType": "uint256",
          "name": "a",
          "type": "uint256"
        },
        {
          "internalType": "uint256",
          "name": "b",
          "type": "uint256"
        }
      ],
      "name": "mul",
      "outputs": [],
      "stateMutability": "nonpayable",
      "type": "function"
    },
    {
      "inputs": [
        {
          "internalType": "uint256",
          "name": "a",
          "type": "uint256"
        },
        {
          "internalType": "uint256",
          "name": "b",
          "type": "uint256"
        }
      ],
      "name": "div",
      "outputs": [],
      "stateMutability": "nonpayable",
      "type": "function"
    },
    {
      "inputs": [],
      "name": "getResult",
      "outputs": [
        {
          "internalType": "uint256",
          "name": "",
          "type": "uint256"
        }
      ],
      "stateMutability": "view",
      "type": "function",
      "constant": true
    }
  ],
  "bytecode": "0x608060405234801561001057600080fd5b5061047f806100206000396000f3fe608060405234801561001057600080fd5b50600436106100575760003560e01c8063771602f71461005c578063a391c15b14610078578063b67d77c514610094578063c8a4ac9c146100b0578063de292789146100cc575b600080fd5b610076600480360381019061007191906101c9565b6100ea565b005b610092600480360381019061008d91906101c9565b610100565b005b6100ae60048036038101906100a991906101c9565b610159565b005b6100ca60048036038101906100c591906101c9565b61016f565b005b6100d4610185565b6040516100e19190610218565b60405180910390f35b80826100f69190610262565b6000819055505050565b60008111610143576040517f08c379a000000000000000000000000000000000000000000000000000000000815260040161013a9061033b565b60405180910390fd5b808261014f919061038a565b6000819055505050565b808261016591906103bb565b6000819055505050565b808261017b91906103ef565b6000819055505050565b60008054905090565b600080fd5b6000819050919050565b6101a681610193565b81146101b157600080fd5b50565b6000813590506101c38161019d565b92915050565b600080604083850312156101e0576101df61018e565b5b60006101ee858286016101b4565b92505060206101ff858286016101b4565b9150509250929050565b61021281610193565b82525050565b600060208201905061022d6000830184610209565b92915050565b7f4e487b7100000000000000000000000000000000000000000000000000000000600052601160045260246000fd5b600061026d82610193565b915061027883610193565b9250827fffffffffffffffffffffffffffffffffffffffffffffffffffffffffffffffff038211156102ad576102ac610233565b5b828201905092915050565b600082825260208201905092915050565b7f5b416c6172745d2044656e6f6d696e746f722073686f756c64206265206c617260008201527f676572207468616e207a65726f20212121000000000000000000000000000000602082015250565b60006103256031836102b8565b9150610330826102c9565b604082019050919050565b6000602082019050818103600083015261035481610318565b9050919050565b7f4e487b7100000000000000000000000000000000000000000000000000000000600052601260045260246000fd5b600061039582610193565b91506103a083610193565b9250826103b0576103af61035b565b5b828204905092915050565b60006103c682610193565b91506103d183610193565b9250828210156103e4576103e3610233565b5b828203905092915050565b60006103fa82610193565b915061040583610193565b9250817fffffffffffffffffffffffffffffffffffffffffffffffffffffffffffffffff048311821515161561043e5761043d610233565b5b82820290509291505056fea2646970667358221220d2e146b95ab2690f787189f1089288d301754ef34ae51a213a572b0a75f37c1264736f6c634300080b0033",
  "immutableReferences": {},
  "source": "// SPDX-License-Identifiler: MIT\npragma solidity >=0.4.22 <0.9.0;\n\n/**\n * @title Calculator\n * @dev operator and getter\n */\n\ncontract Calculator {\n  uint result;\n  \n  function add(uint a, uint b) public {\n    result = a + b;\n  }\n\n  function sub(uint a, uint b) public {\n    result = a - b;\n  }\n\n  function mul(uint a, uint b) public {\n    result = a * b;\n  }\n\n  function div(uint a, uint b) public {\n    require(b > 0, \"[Alart] Denomintor should be larger than zero !!!\");\n\n    result = a / b;\n  }\n\n  function getResult() public view returns(uint){\n    return result;\n  }\n}\n\n",
  "sourcePath": "/Users/Macbook/Documents//github/Blockchain_lab/lab1/contracts/Calculator.sol",
  "compiler": {
    "name": "solc",
    "version": "0.8.11+commit.d7f03943.Emscripten.clang"
  },
  "schemaVersion": "3.4.5",
  "updatedAt": "2022-02-27T08:58:36.906Z",
  "networkType": "ethereum",
  "devdoc": {
    "details": "operator and getter",
    "kind": "dev",
    "methods": {},
    "title": "Calculator",
    "version": 1
  },
  "userdoc": {
    "kind": "user",
    "methods": {},
    "version": 1
  }
}